{
  "contractName": "SensuiVault",
  "abi": [
    {
      "constant": true,
      "inputs": [
        {
          "name": "",
          "type": "address"
        }
      ],
      "name": "operators",
      "outputs": [
        {
          "name": "",
          "type": "bool"
        }
      ],
      "payable": false,
      "stateMutability": "view",
      "type": "function"
    },
    {
      "constant": true,
      "inputs": [
        {
          "name": "",
          "type": "address"
        }
      ],
      "name": "balances",
      "outputs": [
        {
          "name": "",
          "type": "uint256"
        }
      ],
      "payable": false,
      "stateMutability": "view",
      "type": "function"
    },
    {
      "constant": true,
      "inputs": [],
      "name": "sensuiFee",
      "outputs": [
        {
          "name": "",
          "type": "uint256"
        }
      ],
      "payable": false,
      "stateMutability": "view",
      "type": "function"
    },
    {
      "constant": true,
      "inputs": [],
      "name": "owner",
      "outputs": [
        {
          "name": "",
          "type": "address"
        }
      ],
      "payable": false,
      "stateMutability": "view",
      "type": "function"
    },
    {
      "inputs": [],
      "payable": false,
      "stateMutability": "nonpayable",
      "type": "constructor"
    },
    {
      "anonymous": false,
      "inputs": [
        {
          "indexed": true,
          "name": "receiver",
          "type": "address"
        },
        {
          "indexed": true,
          "name": "funder",
          "type": "address"
        },
        {
          "indexed": false,
          "name": "amount",
          "type": "uint256"
        }
      ],
      "name": "Funded",
      "type": "event"
    },
    {
      "anonymous": false,
      "inputs": [
        {
          "indexed": true,
          "name": "funder",
          "type": "address"
        },
        {
          "indexed": false,
          "name": "amount",
          "type": "uint256"
        }
      ],
      "name": "Deposited",
      "type": "event"
    },
    {
      "anonymous": false,
      "inputs": [
        {
          "indexed": true,
          "name": "funder",
          "type": "address"
        },
        {
          "indexed": false,
          "name": "amount",
          "type": "uint256"
        }
      ],
      "name": "Withdrawed",
      "type": "event"
    },
    {
      "constant": false,
      "inputs": [
        {
          "name": "_newOwner",
          "type": "address"
        }
      ],
      "name": "changeOwner",
      "outputs": [],
      "payable": false,
      "stateMutability": "nonpayable",
      "type": "function"
    },
    {
      "constant": false,
      "inputs": [
        {
          "name": "_opeartor",
          "type": "address"
        }
      ],
      "name": "addOperator",
      "outputs": [],
      "payable": false,
      "stateMutability": "nonpayable",
      "type": "function"
    },
    {
      "constant": false,
      "inputs": [
        {
          "name": "_opeartor",
          "type": "address"
        }
      ],
      "name": "removeOperator",
      "outputs": [],
      "payable": false,
      "stateMutability": "nonpayable",
      "type": "function"
    },
    {
      "constant": false,
      "inputs": [
        {
          "name": "amount",
          "type": "uint256"
        }
      ],
      "name": "setSensuiFee",
      "outputs": [],
      "payable": false,
      "stateMutability": "nonpayable",
      "type": "function"
    },
    {
      "constant": false,
      "inputs": [
        {
          "name": "receiver",
          "type": "address"
        },
        {
          "name": "funder",
          "type": "address"
        },
        {
          "name": "amount",
          "type": "uint256"
        }
      ],
      "name": "fund",
      "outputs": [],
      "payable": false,
      "stateMutability": "nonpayable",
      "type": "function"
    },
    {
      "constant": false,
      "inputs": [
        {
          "name": "to",
          "type": "address"
        }
      ],
      "name": "deposit",
      "outputs": [],
      "payable": true,
      "stateMutability": "payable",
      "type": "function"
    },
    {
      "constant": false,
      "inputs": [
        {
          "name": "amount",
          "type": "uint256"
        }
      ],
      "name": "withdraw",
      "outputs": [],
      "payable": false,
      "stateMutability": "nonpayable",
      "type": "function"
    }
  ],
  "bytecode": "0x6080604052600060035534801561001557600080fd5b50336000806101000a81548173ffffffffffffffffffffffffffffffffffffffff021916908373ffffffffffffffffffffffffffffffffffffffff160217905550610b6d806100656000396000f3fe6080604052600436106100af576000357c0100000000000000000000000000000000000000000000000000000000900463ffffffff168063101d5998146100b457806313e7c9d8146100ef57806327e235e3146101585780632e1a7d4d146101bd5780635bfdc6d7146101f85780638da5cb5b146102235780639870d7fe1461027a578063a6f9dae1146102cb578063ac8a584a1461031c578063be899c891461036d578063f340fa01146103e8575b600080fd5b3480156100c057600080fd5b506100ed600480360360208110156100d757600080fd5b810190808035906020019092919050505061042c565b005b3480156100fb57600080fd5b5061013e6004803603602081101561011257600080fd5b81019080803573ffffffffffffffffffffffffffffffffffffffff169060200190929190505050610491565b604051808215151515815260200191505060405180910390f35b34801561016457600080fd5b506101a76004803603602081101561017b57600080fd5b81019080803573ffffffffffffffffffffffffffffffffffffffff1690602001909291905050506104b1565b6040518082815260200191505060405180910390f35b3480156101c957600080fd5b506101f6600480360360208110156101e057600080fd5b81019080803590602001909291905050506104c9565b005b34801561020457600080fd5b5061020d6105fc565b6040518082815260200191505060405180910390f35b34801561022f57600080fd5b50610238610602565b604051808273ffffffffffffffffffffffffffffffffffffffff1673ffffffffffffffffffffffffffffffffffffffff16815260200191505060405180910390f35b34801561028657600080fd5b506102c96004803603602081101561029d57600080fd5b81019080803573ffffffffffffffffffffffffffffffffffffffff169060200190929190505050610627565b005b3480156102d757600080fd5b5061031a600480360360208110156102ee57600080fd5b81019080803573ffffffffffffffffffffffffffffffffffffffff1690602001909291905050506106dd565b005b34801561032857600080fd5b5061036b6004803603602081101561033f57600080fd5b81019080803573ffffffffffffffffffffffffffffffffffffffff16906020019092919050505061077b565b005b34801561037957600080fd5b506103e66004803603606081101561039057600080fd5b81019080803573ffffffffffffffffffffffffffffffffffffffff169060200190929190803573ffffffffffffffffffffffffffffffffffffffff16906020019092919080359060200190929190505050610831565b005b61042a600480360360208110156103fe57600080fd5b81019080803573ffffffffffffffffffffffffffffffffffffffff169060200190929190505050610aa3565b005b6000809054906101000a900473ffffffffffffffffffffffffffffffffffffffff1673ffffffffffffffffffffffffffffffffffffffff163373ffffffffffffffffffffffffffffffffffffffff1614151561048757600080fd5b8060038190555050565b60026020528060005260406000206000915054906101000a900460ff1681565b60016020528060005260406000206000915090505481565b80600160003373ffffffffffffffffffffffffffffffffffffffff1673ffffffffffffffffffffffffffffffffffffffff168152602001908152602001600020541015151561051757600080fd5b80600160003373ffffffffffffffffffffffffffffffffffffffff1673ffffffffffffffffffffffffffffffffffffffff168152602001908152602001600020600082825403925050819055503373ffffffffffffffffffffffffffffffffffffffff166108fc829081150290604051600060405180830381858888f193505050501580156105aa573d6000803e3d6000fd5b503373ffffffffffffffffffffffffffffffffffffffff167f6cca423c6ffc06e62a0acc433965e074b11c28479b0449250ce3ff65ac9e39fe826040518082815260200191505060405180910390a250565b60035481565b6000809054906101000a900473ffffffffffffffffffffffffffffffffffffffff1681565b6000809054906101000a900473ffffffffffffffffffffffffffffffffffffffff1673ffffffffffffffffffffffffffffffffffffffff163373ffffffffffffffffffffffffffffffffffffffff1614151561068257600080fd5b6001600260008373ffffffffffffffffffffffffffffffffffffffff1673ffffffffffffffffffffffffffffffffffffffff16815260200190815260200160002060006101000a81548160ff02191690831515021790555050565b6000809054906101000a900473ffffffffffffffffffffffffffffffffffffffff1673ffffffffffffffffffffffffffffffffffffffff163373ffffffffffffffffffffffffffffffffffffffff1614151561073857600080fd5b806000806101000a81548173ffffffffffffffffffffffffffffffffffffffff021916908373ffffffffffffffffffffffffffffffffffffffff16021790555050565b6000809054906101000a900473ffffffffffffffffffffffffffffffffffffffff1673ffffffffffffffffffffffffffffffffffffffff163373ffffffffffffffffffffffffffffffffffffffff161415156107d657600080fd5b6000600260008373ffffffffffffffffffffffffffffffffffffffff1673ffffffffffffffffffffffffffffffffffffffff16815260200190815260200160002060006101000a81548160ff02191690831515021790555050565b600260003373ffffffffffffffffffffffffffffffffffffffff1673ffffffffffffffffffffffffffffffffffffffff16815260200190815260200160002060009054906101000a900460ff16151561088957600080fd5b6000620111703a029050600081600354840101905080600160008673ffffffffffffffffffffffffffffffffffffffff1673ffffffffffffffffffffffffffffffffffffffff16815260200190815260200160002054101515156108ec57600080fd5b80600160008673ffffffffffffffffffffffffffffffffffffffff1673ffffffffffffffffffffffffffffffffffffffff168152602001908152602001600020600082825403925050819055508473ffffffffffffffffffffffffffffffffffffffff166108fc849081150290604051600060405180830381858888f1935050505015801561097f573d6000803e3d6000fd5b50600354600160008060009054906101000a900473ffffffffffffffffffffffffffffffffffffffff1673ffffffffffffffffffffffffffffffffffffffff1673ffffffffffffffffffffffffffffffffffffffff168152602001908152602001600020600082825401925050819055503373ffffffffffffffffffffffffffffffffffffffff166108fc839081150290604051600060405180830381858888f19350505050158015610a36573d6000803e3d6000fd5b508373ffffffffffffffffffffffffffffffffffffffff168573ffffffffffffffffffffffffffffffffffffffff167f3b5083eec1a1116c56de5d6841cff8efc6a0aec9850e836ec509d6ce024ea561856040518082815260200191505060405180910390a35050505050565b34600160008373ffffffffffffffffffffffffffffffffffffffff1673ffffffffffffffffffffffffffffffffffffffff168152602001908152602001600020600082825401925050819055508073ffffffffffffffffffffffffffffffffffffffff167f2da466a7b24304f47e87fa2e1e5a81b9831ce54fec19055ce277ca2f39ba42c4346040518082815260200191505060405180910390a25056fea165627a7a72305820376bfa7f2987d70f44d973780bc39319c1c4d92c5693d3629ad64588575ca64b0029",
  "source": "pragma solidity ^0.5.0;\n\ncontract SensuiVault {\n  //Owner of the contract. \n  // - Can add operators  \n  // - Can change Owner\n  // - Can set sensuiFee\n  address public owner;\n  \n  //Balances for the diferent users\n  mapping(address => uint256) public balances;\n  \n  //Operators allowed to fund users\n  mapping(address => bool) public operators;\n  \n  //Fee for the owner for every fund() operation\n  uint256 public sensuiFee=0; \n  \n  constructor() public {\n    owner = msg.sender;\n  }\n\n  modifier _onlyOwner() {\n    require(msg.sender == owner);\n    _;\n  }\n\n  modifier _onlyOperator() {\n    require(operators[msg.sender]);\n    _;\n  }\n\n  // -- Owner functions \n  function changeOwner(address _newOwner) _onlyOwner public {\n      owner = _newOwner;\n  }\n  \n  //Operators admin functions\n  function addOperator(address _opeartor) _onlyOwner public {\n      operators[_opeartor] = true;\n  }\n  function removeOperator(address _opeartor) _onlyOwner public {\n      operators[_opeartor] = false;\n  }\n\n  //Fee functions\n  function setSensuiFee(uint256 amount) _onlyOwner public {\n      sensuiFee = amount;\n  }\n  \n  // -- Operator functions\n  // gasLimit: aprox 50000\n  function fund(address payable receiver, address funder, uint256 amount) _onlyOperator public {\n      //TODO: need a better txGas consumption logic\n      uint256 operatorFee = tx.gasprice * 70000;\n      \n      uint totalAmount = amount + sensuiFee + operatorFee;\n      require(balances[funder] >= totalAmount);\n      balances[funder] -= totalAmount;\n      receiver.transfer(amount);\n      balances[owner] += sensuiFee;\n      msg.sender.transfer(operatorFee);\n\n      emit Funded(receiver,funder,amount);\n  }\n    \n  event Funded(address indexed receiver, address indexed funder, uint256 amount);\n    \n  //-- Funders functions\n  function deposit(address to) payable public{\n    balances[to] += msg.value;\n    \n    emit Deposited(to,msg.value);\n  }\n\n  event Deposited(address indexed funder, uint256 amount);\n  \n  function withdraw(uint256 amount) public {\n    require(balances[msg.sender] >= amount);\n    balances[msg.sender] -= amount;\n    msg.sender.transfer(amount);\n    \n    emit Withdrawed(msg.sender,amount);\n  }\n\n  event Withdrawed(address indexed funder, uint256 amount);\n\n  \n}\n",
  "sourcePath": "/home/ajunge/work/uport-project/lambda-sensui/contracts/SensuiVault.sol",
  "compiler": {
    "name": "solc",
    "version": "0.5.0+commit.1d4f565a.Emscripten.clang"
  },
  "schemaVersion": "3.0.2",
  "updatedAt": "2019-02-28T01:30:24.640Z",
  "devdoc": {
    "methods": {}
  },
  "userdoc": {
    "methods": {}
  }
}