{
  "contractName": "TestContract",
  "abi": [
    {
      "constant": true,
      "inputs": [],
      "name": "number",
      "outputs": [
        {
          "name": "",
          "type": "int256"
        }
      ],
      "payable": false,
      "stateMutability": "view",
      "type": "function",
      "signature": "0x8381f58a"
    },
    {
      "constant": false,
      "inputs": [
        {
          "name": "newNumber",
          "type": "int256"
        }
      ],
      "name": "setNumber",
      "outputs": [],
      "payable": false,
      "stateMutability": "nonpayable",
      "type": "function",
      "signature": "0x9cf27f37"
    }
  ],
  "bytecode": "0x608060405234801561001057600080fd5b5060e98061001f6000396000f3fe6080604052600436106049576000357c0100000000000000000000000000000000000000000000000000000000900463ffffffff1680638381f58a14604e5780639cf27f37146076575b600080fd5b348015605957600080fd5b50606060ad565b6040518082815260200191505060405180910390f35b348015608157600080fd5b5060ab60048036036020811015609657600080fd5b810190808035906020019092919050505060b3565b005b60005481565b806000819055505056fea165627a7a72305820c2cf51003e943ae5657c290346f69fe270dbb49138b992f08d70540619b9cc5d0029",
  "source": "pragma solidity ^0.5.0;\n\ncontract TestContract {\n    int256 public number;\n    \n    function setNumber(int256 newNumber) public {\n        number = newNumber;\n    }\n}",
  "sourcePath": "/home/ajunge/work/uport-project/lambda-sensui/contracts/TestContract.sol",
  "compiler": {
    "name": "solc",
    "version": "0.5.0+commit.1d4f565a.Emscripten.clang"
  },
  "schemaVersion": "3.0.2",
  "updatedAt": "2019-03-11T11:39:53.600Z",
  "devdoc": {
    "methods": {}
  },
  "userdoc": {
    "methods": {}
  }
}